{
  "transactions": [
    {
      "hash": "0xff7e100a1d1296dec01b5189c8a16f358f84e3cae8179c71a224d704139c9400",
      "transactionType": "CALL",
      "contractName": null,
      "contractAddress": "0x41ea9026c303c8b17d4d8ab67e11a3f7f649ea59",
      "function": "applyChainUpdates(uint64[],(uint64,bytes[],bytes,(bool,uint128,uint128),(bool,uint128,uint128))[])",
      "arguments": [
        "[]",
        "[(6898391096552792247, [0x0000000000000000000000005f2c68c3e236e41aac4ba590848ab9c77ef5292e], 0x000000000000000000000000a067e509eddbb0b4a37fcbffc787298fe728be44, (false, 0, 0), (false, 0, 0))]"
      ],
      "transaction": {
        "from": "0xa3f294c501c1d5c1a83dc2238647704db03827a5",
        "to": "0x41ea9026c303c8b17d4d8ab67e11a3f7f649ea59",
        "gas": "0x6a3e8",
        "value": "0x0",
        "input": "0xe8a1da17000000000000000000000000000000000000000000000000000000000000004000000000000000000000000000000000000000000000000000000000000000600000000000000000000000000000000000000000000000000000000000000000000000000000000000000000000000000000000000000000000000000000000100000000000000000000000000000000000000000000000000000000000000200000000000000000000000000000000000000000000000005fbc02272fbf20b7000000000000000000000000000000000000000000000000000000000000012000000000000000000000000000000000000000000000000000000000000001a00000000000000000000000000000000000000000000000000000000000000000000000000000000000000000000000000000000000000000000000000000000000000000000000000000000000000000000000000000000000000000000000000000000000000000000000000000000000000000000000000000000000000000000000000000000000000000000000000000000000000000000000000000000000000000000000000000000000000000000000000000000000000000000000000000000000000000000000000000000000000000000000000000000000000001000000000000000000000000000000000000000000000000000000000000002000000000000000000000000000000000000000000000000000000000000000200000000000000000000000005f2c68c3e236e41aac4ba590848ab9c77ef5292e0000000000000000000000000000000000000000000000000000000000000020000000000000000000000000a067e509eddbb0b4a37fcbffc787298fe728be44",
        "nonce": "0x19",
        "chainId": "0xaa36a7"
      },
      "additionalContracts": [],
      "isFixedGasLimit": false
    }
  ],
  "receipts": [
    {
      "status": "0x1",
      "cumulativeGasUsed": "0xe22fd2",
      "logs": [
        {
          "address": "0x41ea9026c303c8b17d4d8ab67e11a3f7f649ea59",
          "topics": [
            "0x7d628c9a1796743d365ab521a8b2a4686e419b3269919dc9145ea2ce853b54ea",
            "0x0000000000000000000000000000000000000000000000005fbc02272fbf20b7"
          ],
          "data": "0x000000000000000000000000000000000000000000000000000000000000002000000000000000000000000000000000000000000000000000000000000000200000000000000000000000005f2c68c3e236e41aac4ba590848ab9c77ef5292e",
          "blockHash": "0xc387518e63888687d3ea36a4638bcd7b60418305f58190bca64c3ea89fee65e9",
          "blockNumber": "0xa4226f",
          "blockTimestamp": "0x69f231c0",
          "transactionHash": "0xff7e100a1d1296dec01b5189c8a16f358f84e3cae8179c71a224d704139c9400",
          "transactionIndex": "0x70",
          "logIndex": "0x1e1",
          "removed": false
        },
        {
          "address": "0x41ea9026c303c8b17d4d8ab67e11a3f7f649ea59",
          "topics": [
            "0x8d340f17e19058004c20453540862a9c62778504476f6756755cb33bcd6c38c2"
          ],
          "data": "0x0000000000000000000000000000000000000000000000005fbc02272fbf20b700000000000000000000000000000000000000000000000000000000000001000000000000000000000000000000000000000000000000000000000000000000000000000000000000000000000000000000000000000000000000000000000000000000000000000000000000000000000000000000000000000000000000000000000000000000000000000000000000000000000000000000000000000000000000000000000000000000000000000000000000000000000000000000000000000000000000000000000000000000000000000000000000000000000000000000000000000000000000000000000000000000000000000000000000000020000000000000000000000000a067e509eddbb0b4a37fcbffc787298fe728be44",
          "blockHash": "0xc387518e63888687d3ea36a4638bcd7b60418305f58190bca64c3ea89fee65e9",
          "blockNumber": "0xa4226f",
          "blockTimestamp": "0x69f231c0",
          "transactionHash": "0xff7e100a1d1296dec01b5189c8a16f358f84e3cae8179c71a224d704139c9400",
          "transactionIndex": "0x70",
          "logIndex": "0x1e2",
          "removed": false
        }
      ],
      "logsBloom": "0x00000000000000400000000000000000000000000000000000000000000000000000000000000000000000000000000000000000000000000004000000000004000000000000000000000000040000000000008004000000000000000000000000000000000000000000000000000040000000000000000000000000080000400000000000000000000000000000000000000000000000000000000000000000000000000000008000000000000000000000000000000000000000000000000000000000000000000000000000000000000000000000000000000000000000000000000000000000000000000000000000000000008000000100000000000000",
      "type": "0x2",
      "transactionHash": "0xff7e100a1d1296dec01b5189c8a16f358f84e3cae8179c71a224d704139c9400",
      "transactionIndex": "0x70",
      "blockHash": "0xc387518e63888687d3ea36a4638bcd7b60418305f58190bca64c3ea89fee65e9",
      "blockNumber": "0xa4226f",
      "gasUsed": "0x4ceb4",
      "effectiveGasPrice": "0x9eaeef",
      "from": "0xa3f294c501c1d5c1a83dc2238647704db03827a5",
      "to": "0x41ea9026c303c8b17d4d8ab67e11a3f7f649ea59",
      "contractAddress": null
    }
  ],
  "libraries": [],
  "pending": [],
  "returns": {},
  "timestamp": 1777480129486,
  "chain": 11155111,
  "commit": null
}