{
  "transactions": [
    {
      "hash": "0x35a8f05f376e8c3ff755f1e5aecb60975c223becfaa92cecb6a15a1d786a5459",
      "transactionType": "CALL",
      "contractName": null,
      "contractAddress": "0x779877a7b0d9e8603169ddbd7836e478b4624789",
      "function": "approve(address,uint256)",
      "arguments": [
        "0x0BF3dE8c5D3e8A2B34D2BEeB17ABfCeBaf363A59",
        "52035851999071642"
      ],
      "transaction": {
        "from": "0xa3f294c501c1d5c1a83dc2238647704db03827a5",
        "to": "0x779877a7b0d9e8603169ddbd7836e478b4624789",
        "gas": "0x1081f",
        "value": "0x0",
        "input": "0x095ea7b30000000000000000000000000bf3de8c5d3e8a2b34d2beeb17abfcebaf363a5900000000000000000000000000000000000000000000000000b8de54e9fd4d9a",
        "nonce": "0x1b",
        "chainId": "0xaa36a7"
      },
      "additionalContracts": [],
      "isFixedGasLimit": false
    },
    {
      "hash": "0x7610e9d5ced9f195b4f2e3e7df353f042a6574b55209c4f955db7c6609737357",
      "transactionType": "CALL",
      "contractName": null,
      "contractAddress": "0x202895e22d4e4e96d53d1d6ccacefce10d34227c",
      "function": "approve(address,uint256)",
      "arguments": [
        "0x0BF3dE8c5D3e8A2B34D2BEeB17ABfCeBaf363A59",
        "100000"
      ],
      "transaction": {
        "from": "0xa3f294c501c1d5c1a83dc2238647704db03827a5",
        "to": "0x202895e22d4e4e96d53d1d6ccacefce10d34227c",
        "gas": "0x10c27",
        "value": "0x0",
        "input": "0x095ea7b30000000000000000000000000bf3de8c5d3e8a2b34d2beeb17abfcebaf363a5900000000000000000000000000000000000000000000000000000000000186a0",
        "nonce": "0x1c",
        "chainId": "0xaa36a7"
      },
      "additionalContracts": [],
      "isFixedGasLimit": false
    },
    {
      "hash": "0x143236264df40f83339c33b8100676f561d95ce787308bda2eefce158ce72b95",
      "transactionType": "CALL",
      "contractName": null,
      "contractAddress": "0x0bf3de8c5d3e8a2b34d2beeb17abfcebaf363a59",
      "function": "ccipSend(uint64,(bytes,bytes,(address,uint256)[],address,bytes))",
      "arguments": [
        "6898391096552792247",
        "(0x000000000000000000000000a3f294c501c1d5c1a83dc2238647704db03827a5, 0x, [(0x202895E22D4E4E96D53d1D6ccAcefcE10D34227C, 100000)], 0x779877A7B0D9E8603169DdbD7836e478b4624789, 0x97a657c90000000000000000000000000000000000000000000000000000000000000000)"
      ],
      "transaction": {
        "from": "0xa3f294c501c1d5c1a83dc2238647704db03827a5",
        "to": "0x0bf3de8c5d3e8a2b34d2beeb17abfcebaf363a59",
        "gas": "0x58f4f",
        "value": "0x0",
        "input": "0x96f4e9f90000000000000000000000000000000000000000000000005fbc02272fbf20b7000000000000000000000000000000000000000000000000000000000000004000000000000000000000000000000000000000000000000000000000000000a000000000000000000000000000000000000000000000000000000000000000e00000000000000000000000000000000000000000000000000000000000000100000000000000000000000000779877a7b0d9e8603169ddbd7836e478b462478900000000000000000000000000000000000000000000000000000000000001600000000000000000000000000000000000000000000000000000000000000020000000000000000000000000a3f294c501c1d5c1a83dc2238647704db03827a500000000000000000000000000000000000000000000000000000000000000000000000000000000000000000000000000000000000000000000000000000001000000000000000000000000202895e22d4e4e96d53d1d6ccacefce10d34227c00000000000000000000000000000000000000000000000000000000000186a0000000000000000000000000000000000000000000000000000000000000002497a657c9000000000000000000000000000000000000000000000000000000000000000000000000000000000000000000000000000000000000000000000000",
        "nonce": "0x1d",
        "chainId": "0xaa36a7"
      },
      "additionalContracts": [],
      "isFixedGasLimit": false
    }
  ],
  "receipts": [
    {
      "status": "0x1",
      "cumulativeGasUsed": "0x18d87a5",
      "logs": [
        {
          "address": "0x779877a7b0d9e8603169ddbd7836e478b4624789",
          "topics": [
            "0x8c5be1e5ebec7d5bd14f71427d1e84f3dd0314c0f7b2291e5b200ac8c7c3b925",
            "0x000000000000000000000000a3f294c501c1d5c1a83dc2238647704db03827a5",
            "0x0000000000000000000000000bf3de8c5d3e8a2b34d2beeb17abfcebaf363a59"
          ],
          "data": "0x00000000000000000000000000000000000000000000000000b8de54e9fd4d9a",
          "blockHash": "0xdf87615e4413b3a6e2539835e4941401b4482f75c442bae649439b061673209f",
          "blockNumber": "0xa4231b",
          "blockTimestamp": "0x69f23ac0",
          "transactionHash": "0x35a8f05f376e8c3ff755f1e5aecb60975c223becfaa92cecb6a15a1d786a5459",
          "transactionIndex": "0x80",
          "logIndex": "0x25a",
          "removed": false
        }
      ],
      "logsBloom": "0x00000004000040000000000000000000000000000000000000000000000000000000080000000000000000000000000000000000000000000000000008200000000000000000000000000000000000000000000000000000000000000000000000000000000100000000000000000000000000000000000000000000000000000000000000000000000000000000800000000000000000000000000000000000020000008000080000000000000000000000000000000000000000000000000000000000000000000000000000000000000000000000000100000000000000000010000000000000000000000000000000000000000000000000000000000000",
      "type": "0x2",
      "transactionHash": "0x35a8f05f376e8c3ff755f1e5aecb60975c223becfaa92cecb6a15a1d786a5459",
      "transactionIndex": "0x80",
      "blockHash": "0xdf87615e4413b3a6e2539835e4941401b4482f75c442bae649439b061673209f",
      "blockNumber": "0xa4231b",
      "gasUsed": "0xb499",
      "effectiveGasPrice": "0xa334d3",
      "from": "0xa3f294c501c1d5c1a83dc2238647704db03827a5",
      "to": "0x779877a7b0d9e8603169ddbd7836e478b4624789",
      "contractAddress": null
    },
    {
      "status": "0x1",
      "cumulativeGasUsed": "0x19b744c",
      "logs": [
        {
          "address": "0x202895e22d4e4e96d53d1d6ccacefce10d34227c",
          "topics": [
            "0x8c5be1e5ebec7d5bd14f71427d1e84f3dd0314c0f7b2291e5b200ac8c7c3b925",
            "0x000000000000000000000000a3f294c501c1d5c1a83dc2238647704db03827a5",
            "0x0000000000000000000000000bf3de8c5d3e8a2b34d2beeb17abfcebaf363a59"
          ],
          "data": "0x00000000000000000000000000000000000000000000000000000000000186a0",
          "blockHash": "0xdf87615e4413b3a6e2539835e4941401b4482f75c442bae649439b061673209f",
          "blockNumber": "0xa4231b",
          "blockTimestamp": "0x69f23ac0",
          "transactionHash": "0x143236264df40f83339c33b8100676f561d95ce787308bda2eefce158ce72b95",
          "transactionIndex": "0x8b",
          "logIndex": "0x277",
          "removed": false
        }
      ],
      "logsBloom": "0x00000000000040000000000000000000000000000000000000000000000000000000080000000000000000000040000000000000000000000000000008200000000000000000000000000000000000000000000000000000000000000000000000000000000100000000000000000000000000000000008000000008000000000000000000000000000000000000000000000000000000000000000000000000020000008000080000000000000000000000000000000000000000000000000000000000000000000000000000000000000000000000000000000000000000000010000000000000000000000000000000000000000000000000000000000000",
      "type": "0x2",
      "transactionHash": "0x143236264df40f83339c33b8100676f561d95ce787308bda2eefce158ce72b95",
      "transactionIndex": "0x8b",
      "blockHash": "0xdf87615e4413b3a6e2539835e4941401b4482f75c442bae649439b061673209f",
      "blockNumber": "0xa4231b",
      "gasUsed": "0xb75b",
      "effectiveGasPrice": "0xa334d3",
      "from": "0xa3f294c501c1d5c1a83dc2238647704db03827a5",
      "to": "0x202895e22d4e4e96d53d1d6ccacefce10d34227c",
      "contractAddress": null
    },
    {
      "status": "0x1",
      "cumulativeGasUsed": "0x19f7ac0",
      "logs": [
        {
          "address": "0x779877a7b0d9e8603169ddbd7836e478b4624789",
          "topics": [
            "0xddf252ad1be2c89b69c2b068fc378daa952ba7f163c4a11628f55a4df523b3ef",
            "0x000000000000000000000000a3f294c501c1d5c1a83dc2238647704db03827a5",
            "0x00000000000000000000000023a5084fa78104f3df11c63ae59fcac4f6ad9dee"
          ],
          "data": "0x00000000000000000000000000000000000000000000000000b8de54e9fd4d9a",
          "blockHash": "0xdf87615e4413b3a6e2539835e4941401b4482f75c442bae649439b061673209f",
          "blockNumber": "0xa4231b",
          "blockTimestamp": "0x69f23ac0",
          "transactionHash": "0x7610e9d5ced9f195b4f2e3e7df353f042a6574b55209c4f955db7c6609737357",
          "transactionIndex": "0x8c",
          "logIndex": "0x278",
          "removed": false
        },
        {
          "address": "0x779877a7b0d9e8603169ddbd7836e478b4624789",
          "topics": [
            "0x8c5be1e5ebec7d5bd14f71427d1e84f3dd0314c0f7b2291e5b200ac8c7c3b925",
            "0x000000000000000000000000a3f294c501c1d5c1a83dc2238647704db03827a5",
            "0x0000000000000000000000000bf3de8c5d3e8a2b34d2beeb17abfcebaf363a59"
          ],
          "data": "0x0000000000000000000000000000000000000000000000000000000000000000",
          "blockHash": "0xdf87615e4413b3a6e2539835e4941401b4482f75c442bae649439b061673209f",
          "blockNumber": "0xa4231b",
          "blockTimestamp": "0x69f23ac0",
          "transactionHash": "0x7610e9d5ced9f195b4f2e3e7df353f042a6574b55209c4f955db7c6609737357",
          "transactionIndex": "0x8c",
          "logIndex": "0x279",
          "removed": false
        },
        {
          "address": "0x202895e22d4e4e96d53d1d6ccacefce10d34227c",
          "topics": [
            "0xddf252ad1be2c89b69c2b068fc378daa952ba7f163c4a11628f55a4df523b3ef",
            "0x0000000000000000000000000000000000000000000000000000000000000000",
            "0x000000000000000000000000a3f294c501c1d5c1a83dc2238647704db03827a5"
          ],
          "data": "0x000000000000000000000000000000000000000000000000000000000000000b",
          "blockHash": "0xdf87615e4413b3a6e2539835e4941401b4482f75c442bae649439b061673209f",
          "blockNumber": "0xa4231b",
          "blockTimestamp": "0x69f23ac0",
          "transactionHash": "0x7610e9d5ced9f195b4f2e3e7df353f042a6574b55209c4f955db7c6609737357",
          "transactionIndex": "0x8c",
          "logIndex": "0x27a",
          "removed": false
        },
        {
          "address": "0x202895e22d4e4e96d53d1d6ccacefce10d34227c",
          "topics": [
            "0xddf252ad1be2c89b69c2b068fc378daa952ba7f163c4a11628f55a4df523b3ef",
            "0x0000000000000000000000000000000000000000000000000000000000000000",
            "0x00000000000000000000000041ea9026c303c8b17d4d8ab67e11a3f7f649ea59"
          ],
          "data": "0x0000000000000000000000000000000000000000000000000000000000000000",
          "blockHash": "0xdf87615e4413b3a6e2539835e4941401b4482f75c442bae649439b061673209f",
          "blockNumber": "0xa4231b",
          "blockTimestamp": "0x69f23ac0",
          "transactionHash": "0x7610e9d5ced9f195b4f2e3e7df353f042a6574b55209c4f955db7c6609737357",
          "transactionIndex": "0x8c",
          "logIndex": "0x27b",
          "removed": false
        },
        {
          "address": "0x202895e22d4e4e96d53d1d6ccacefce10d34227c",
          "topics": [
            "0xddf252ad1be2c89b69c2b068fc378daa952ba7f163c4a11628f55a4df523b3ef",
            "0x000000000000000000000000a3f294c501c1d5c1a83dc2238647704db03827a5",
            "0x00000000000000000000000041ea9026c303c8b17d4d8ab67e11a3f7f649ea59"
          ],
          "data": "0x00000000000000000000000000000000000000000000000000000000000186a0",
          "blockHash": "0xdf87615e4413b3a6e2539835e4941401b4482f75c442bae649439b061673209f",
          "blockNumber": "0xa4231b",
          "blockTimestamp": "0x69f23ac0",
          "transactionHash": "0x7610e9d5ced9f195b4f2e3e7df353f042a6574b55209c4f955db7c6609737357",
          "transactionIndex": "0x8c",
          "logIndex": "0x27c",
          "removed": false
        },
        {
          "address": "0x202895e22d4e4e96d53d1d6ccacefce10d34227c",
          "topics": [
            "0xddf252ad1be2c89b69c2b068fc378daa952ba7f163c4a11628f55a4df523b3ef",
            "0x0000000000000000000000000000000000000000000000000000000000000000",
            "0x00000000000000000000000041ea9026c303c8b17d4d8ab67e11a3f7f649ea59"
          ],
          "data": "0x0000000000000000000000000000000000000000000000000000000000000000",
          "blockHash": "0xdf87615e4413b3a6e2539835e4941401b4482f75c442bae649439b061673209f",
          "blockNumber": "0xa4231b",
          "blockTimestamp": "0x69f23ac0",
          "transactionHash": "0x7610e9d5ced9f195b4f2e3e7df353f042a6574b55209c4f955db7c6609737357",
          "transactionIndex": "0x8c",
          "logIndex": "0x27d",
          "removed": false
        },
        {
          "address": "0x202895e22d4e4e96d53d1d6ccacefce10d34227c",
          "topics": [
            "0xddf252ad1be2c89b69c2b068fc378daa952ba7f163c4a11628f55a4df523b3ef",
            "0x00000000000000000000000041ea9026c303c8b17d4d8ab67e11a3f7f649ea59",
            "0x0000000000000000000000000000000000000000000000000000000000000000"
          ],
          "data": "0x00000000000000000000000000000000000000000000000000000000000186a0",
          "blockHash": "0xdf87615e4413b3a6e2539835e4941401b4482f75c442bae649439b061673209f",
          "blockNumber": "0xa4231b",
          "blockTimestamp": "0x69f23ac0",
          "transactionHash": "0x7610e9d5ced9f195b4f2e3e7df353f042a6574b55209c4f955db7c6609737357",
          "transactionIndex": "0x8c",
          "logIndex": "0x27e",
          "removed": false
        },
        {
          "address": "0x23a5084fa78104f3df11c63ae59fcac4f6ad9dee",
          "topics": [
            "0x192442a2b2adb6a7948f097023cb6b57d29d3a7a5dd33e6666d33c39cc456f32",
            "0x0000000000000000000000000000000000000000000000005fbc02272fbf20b7",
            "0x0000000000000000000000000000000000000000000000000000000000000026"
          ],
          "data": "0x0000000000000000000000000000000000000000000000000000000000000020b1a5d42b6862110990942dd27019b607b1bfc49bf7d2091c91c1830244b88c6c000000000000000000000000000000000000000000000000de41ba4fc9d91ad90000000000000000000000000000000000000000000000005fbc02272fbf20b700000000000000000000000000000000000000000000000000000000000000260000000000000000000000000000000000000000000000000000000000000000000000000000000000000000a3f294c501c1d5c1a83dc2238647704db03827a500000000000000000000000000000000000000000000000000000000000001a000000000000000000000000000000000000000000000000000000000000001c00000000000000000000000000000000000000000000000000000000000000200000000000000000000000000779877a7b0d9e8603169ddbd7836e478b462478900000000000000000000000000000000000000000000000000b8de54e9fd4d9a00000000000000000000000000000000000000000000000000b8de54e9fd4d9a000000000000000000000000000000000000000000000000000000000000028000000000000000000000000000000000000000000000000000000000000000000000000000000000000000000000000000000000000000000000000000000020000000000000000000000000a3f294c501c1d5c1a83dc2238647704db03827a50000000000000000000000000000000000000000000000000000000000000044181dcf1000000000000000000000000000000000000000000000000000000000000000000000000000000000000000000000000000000000000000000000000000000001000000000000000000000000000000000000000000000000000000000000000000000000000000000000000000000000000000000000000000000001000000000000000000000000000000000000000000000000000000000000002000000000000000000000000041ea9026c303c8b17d4d8ab67e11a3f7f649ea5900000000000000000000000000000000000000000000000000000000000000a000000000000000000000000000000000000000000000000000000000000000e000000000000000000000000000000000000000000000000000000000000186a000000000000000000000000000000000000000000000000000000000000001200000000000000000000000000000000000000000000000000000000000000020000000000000000000000000a067e509eddbb0b4a37fcbffc787298fe728be4400000000000000000000000000000000000000000000000000000000000000200000000000000000000000000000000000000000000000000000000ba43b740000000000000000000000000000000000000000000000000000000000000000200000000000000000000000000000000000000000000000000000000000015f90",
          "blockHash": "0xdf87615e4413b3a6e2539835e4941401b4482f75c442bae649439b061673209f",
          "blockNumber": "0xa4231b",
          "blockTimestamp": "0x69f23ac0",
          "transactionHash": "0x7610e9d5ced9f195b4f2e3e7df353f042a6574b55209c4f955db7c6609737357",
          "transactionIndex": "0x8c",
          "logIndex": "0x27f",
          "removed": false
        }
      ],
      "logsBloom": "0x00080004000040000000000000000000000000000000000000000000000000000000080000000000000000000042000000000000080000000000000008200000000000000000000000100008040000000001000000000000000000000000000001000000020100000000000000000840000000000000048000000018000000000000010000000000000000000000800000000000000002008000000000000000020000008000088000000000000000000000000080000000000000000400000000000002084000000000000000000000000000000000000100000000000020000010000000000000000000000000200000000000000000000000000000000000",
      "type": "0x2",
      "transactionHash": "0x7610e9d5ced9f195b4f2e3e7df353f042a6574b55209c4f955db7c6609737357",
      "transactionIndex": "0x8c",
      "blockHash": "0xdf87615e4413b3a6e2539835e4941401b4482f75c442bae649439b061673209f",
      "blockNumber": "0xa4231b",
      "gasUsed": "0x40674",
      "effectiveGasPrice": "0xa334d3",
      "from": "0xa3f294c501c1d5c1a83dc2238647704db03827a5",
      "to": "0x0bf3de8c5d3e8a2b34d2beeb17abfcebaf363a59",
      "contractAddress": null
    }
  ],
  "libraries": [],
  "pending": [],
  "returns": {},
  "timestamp": 1777482434307,
  "chain": 11155111,
  "commit": null
}